:020000040800F2
:10000000287E012099320008C3310008C53100085C
:10001000C7310008C9310008CB31000800000000DA
:10002000000000000000000000000000F9160008B9
:10003000CD31000800000000A1160008BB31000807
:10004000E5320008E9320008ED320008F13200081C
:10005000F5320008F9320008FD32000801330008CB
:1000600005330008093300080D3300081133000878
:1000700015330008193300081D3300082133000828
:1000800025330008293300082D33000831330008D8
:1000900035330008393300083D3300084133000888
:1000A00045330008493300084D3300085133000838
:1000B00055330008593300085D33000861330008E8
:1000C00065330008693300086D3300087133000898
:1000D00075330008793300087D330008A931000822
:1000E0008133000885330008893300088D33000808
:1000F0009133000895330008993300089D330008B8
:10010000A1330008A5330008A9330008AD33000867
:10011000B1330008B533000827270008B9330008B9
:10012000BD330008C1330008C5330008C9330008D7
:10013000CD330008B9310008D1330008D5330008A9
:10014000D9330008DD330008E1330008E533000847
:10015000E9330008ED330008F1330008F5330008F7
:10016000F9330008FD3300080134000805340008A5
:10017000093400080D3400081134000800000000A4
:1001800015340008193400082DE9F84384B007003D
:10019000884616009946300080B2800000F010FDBD
:1001A0000500002D0BD0602000F00AFD0400002C9B
:1001B00001D0256304E0280000F090FD00E0002459
:1001C000002C12D00020039002940D9801900C98FE
:1001D00000904B46B6B232004146380000F00AF8B3
:1001E000200000F064F8012001E05FF0FF3005B06E
:1001F000BDE8F0832DE9F84380460C0017001D0090
:100200000A9EB900A522D6F83090484600F00CFEB0
:10021000306B00EB8700071FFF08FF0017F0070097
:10022000002807D0502080F31188BFF34F8FBFF311
:100230006F8FFEE7002100E0491C102907D2605CA7
:1002400006EB010282F83400605C0028F4D1DDF88E
:100250002090002086F84300B9F1070F01D35FF02A
:100260000609099CC6F82C90C6F84C900020306511
:10027000301D00F01BFE16F1180000F017FE36616D
:10028000D9F10709C6F81890766200207065002041
:10029000B065002086F85C002A004146380000F076
:1002A0005FFE3060002C00D02660BDE8F18338B5D9
:1002B000040000F0D8FEDFF858140868401C0860FD
:1002C000DFF850542868002806D12C6008680128FF
:1002D0000DD100F0D9FA0AE0DFF8B8040068002870
:1002E00005D1E06A2968C96A884200D32C60DFF82A
:1002F000A8040168491C016000686064DFF89C1470
:100300000A680123E06A83401A430A60211DDFF86E
:100310009024E36A1420434302EB030000F0C9FD7C
:1003200000F0BBFEDFF86C04006800280DD02868E0
:10033000C06AE16A884208D25FF08050DFF8A015F9
:100340000860BFF34F8FBFF36F8F31BD10B504004E
:100350000020002C14D0DFF874040068002807D0B7
:10036000502080F31188BFF34F8FBFF36F8FFEE7EC
:1003700000F04CF80021200000F0CCFB00F04CF81D
:10038000002808D15FF08050DFF854150860BFF3F3
:100390004F8FBFF36F8F10BDE0B5DFF84C070190B2
:1003A0000020009000238022DFF840170FF2AD40BC
:1003B000FFF7EAFE012801D100F0ECFE01281AD176
:1003C000502080F31188BFF34F8FBFF36F8F5FF022
:1003D000FF30DFF81C1708600120DFF8B813086051
:1003E0000020DFF8101708600020DFF80C17086005
:1003F00000F0DFFD07BD10F1010FFBD1502080F3AD
:100400001188BFF34F8FBFF36F8FFEE7DFF8BC0398
:100410000168491C0160704770B500240025DFF8B1
:10042000AC633068002807D1502080F31188BFF3F7
:100430004F8FBFF36F8FFEE700F015FE3068401E50
:1004400030603068002855D1DFF8C4020068002809
:1004500026D14FE0C868C46814F1180000F050FDC0
:10046000201D00F04DFDDFF834130A680123E06A17
:1004700083401A430A60211DDFF82423E36A142015
:10048000434302EB030000F014FDE06ADFF884123E
:100490000968C96A884203D30120DFF8641608603E
:1004A000DFF8401608680028D4D1002C01D000F0F5
:1004B0004CFADFF848663468002C0CD000F022F8C3
:1004C000002803D00120DFF838160860641E002CD5
:1004D000F4D100203060DFF828060068002809D039
:1004E00001255FF08050DFF8F8130860BFF34F8FED
:1004F000BFF36F8F00F0D1FD280070BDDFF8F40569
:1005000000687047F8B50025DFF8C00200680028D1
:1005100064D1DFF8E0050468641C0460002C1AD183
:10052000DFF85C1308680068002807D0502080F3CB
:100530001188BFF34F8FBFF36F8FFEE70868DFF8B6
:10054000442313680B601060DFF8B8050168491C8C
:10055000016000F0FAF9DFF89865306884422ED324
:1005600020E0381D00F0CCFCB86A002803D017F159
:10057000180000F0C5FC89490A680123F86A834025
:100580001A430A60391D864AFB6A1420434302EB72
:10059000030000F08EFCF86A5E490968C96A884267
:1005A00000D30125DFF8D81208680068002811D0B0
:1005B0000868C068C76878688442D2D230607849D9
:1005C00054480068C26A14204243885802280AD35B
:1005D000012508E05FF0FF303060F0E7DFF81C0530
:1005E0000168491C0160DFF818050068002800D088
:1005F00001252800F2BD10B574480068002804D019
:100600000120DFF8FC1408604CE00020DFF8F01453
:100610000860DFF8F414DFF8E00400680860DFF831
:10062000EC2410680B68984207D23A4803685C6D66
:10063000086804191068241A5C6508681060354C55
:100640002068006B21680968884205D3206810F192
:100650003401206800F0C2FF50480068B0FA80F111
:10066000D1F11F0114224E4B02FB01F01858002853
:1006700007D1502080F31188BFF34F8FBFF36F8FE6
:10068000FEE7514303EB010041684968416041685E
:1006900010F10802914202D1416849684160406806
:1006A000C068206010BD10B50C00002807D1502094
:1006B00080F31188BFF34F8FBFF36F8FFEE7DFF832
:1006C000C4140968183100F000FC0121200000F07A
:1006D00021FA10BD38B50D001400002807D15020B4
:1006E00080F31188BFF34F8FBFF36F8FFEE7DFF802
:1006F00094140968183100F0DCFB002C01D05FF085
:10070000FF352100280000F005FA31BD000000008F
:10071000D05D0120C05D012010B5C068C468002C08
:1007200007D1502080F31188BFF34F8FBFF36F8F35
:10073000FEE714F1180000F0E3FB244800680028ED
:1007400013D1201D00F0DCFB14490A680123E06A84
:1007500083401A430A60211D114AE36A142043436F
:1007600002EB030000F0A5FB05E014F11801DFF82F
:10077000740300F09EFBDFF80C040068C06AE16AB5
:10078000884205D201200121DFF88423116000E0B6
:10079000002010BDDC5D0120EC5D0120D85D012052
:1007A000E85B0120002807D1502080F31188BFF3B7
:1007B0004F8FBFF36F8FFEE7DFF8481309680160C2
:1007C000DFF8CC130968416070470000F85D012034
:1007D00038B504000D00002C07D1502080F311889B
:1007E000BFF34F8FBFF36F8FFEE7002D07D150206F
:1007F00080F31188BFF34F8FBFF36F8FFEE700F0D8
:1008000032FCDFF8F0020168286810F1010F01D115
:1008100000241AE0DFF8EC0200682268904204D05D
:100820006068814201D301240FE06068081A2A68D9
:10083000904209D22868411A606841182960200056
:10084000FFF7B0FF002400E0012400F026FC2000A8
:1008500032BD0120DFF8B8120860704780B500F0A3
:1008600041F8DFF8280300680228F8D35FF08050D1
:1008700047490860BFF34F8FBFF36F8FEFE700006A
:10088000C45D0120C85D012038B5002408E0DFF810
:10089000FC02142101FB04F1084400F0F8FA641C86
:1008A000072CF4D3DFF8EC42200000F0F0FADFF878
:1008B000E852280000F0EBFADFF8280200F0E7FA2F
:1008C000DFF8D80200F0E3FADFF8D40200F0DFFA34
:1008D000DFF8D0020460DFF8D002056031BD00000F
:1008E00004ED00E070B518E00024FFF795FD002C42
:1008F00013D100F0B8FBF068C468201D00F000FBC5
:10090000DFF8A8020168491E01602868401E2860BF
:1009100000F0C3FB200000F00FF8DFF894522868C5
:10092000002808D0FFF772FDDFF8706230680028F9
:10093000DAD10124D9E770BD10B50400206B00F0B6
:10094000CDF9200000F0CAF910BDDFF85812086890
:100950000068002804D15FF0FF306549086005E0B9
:100960000868C068C0684068614908607047DFF87F
:1009700044020068002801D1012007E0DFF83802B6
:100980000068002801D1022000E00020704700002C
:1009900004ED00E0F8B50400002840D0DFF8E47171
:1009A000E06A3968C96A884239D2A069002804D44B
:1009B0003868C06AD0F10700A061DFF8D051142672
:1009C0006069E16A71432944884225D1201D00F005
:1009D00097FA00280CD1E06A70432858002807D104
:1009E000DFF8A4110A680123E06A83409A430A6091
:1009F0003868C06AE062DFF890110A680123E06A93
:100A000083401A430A60211DE06A06FB00F605EBED
:100A1000060000F04EFA02E03868C06AE062F1BDFC
:100A200010B50400002100284FD0DFF858010068FD
:100A3000844207D0502080F31188BFF34F8FBFF35B
:100A40006F8FFEE7206D002807D1502080F31188BA
:100A5000BFF34F8FBFF36F8FFEE7206D401E206501
:100A6000E06AE26C904230D0206D00282DD1201D2C
:100A700000F046FA00280FD1DFF81011E26A1420C6
:100A800042438858002807D1DFF8FC100A68012388
:100A9000E06A83409A430A60E06CE062E06AD0F169
:100AA0000700A061DFF8E0100A680123E06A8340D4
:100AB0001A430A60211DDFF8D420E36A142043435F
:100AC00002EB030000F0F5F90121080010BDDFF88A
:100AD000B4100868002803D00868026D521C026533
:100AE00008687047385D0120F45D0120C4320008B9
:100AF000F05D0120D45D0120BC5D0120E05D01209E
:100B0000E45D0120E85D0120005E0120FC5D012024
:100B1000E45D0120F8B505000C001D480668194F7A
:100B20003868001D00F0ECF9002807D13868164934
:100B30000A680123C06A83409A430A6015F1010FD5
:100B400007D1002C05D03868011D154800F0B1F917
:100B500016E0AD1938684560B54206D23868011D07
:100B60001148006800F0B1F90AE03868011D0D482D
:100B7000006800F0AAF9114801688D4200D20560B2
:100B8000F1BD0000C05D0120D85D0120E85B0120BF
:100B9000D45D0120105D0120245D01204C5D012009
:100BA000605D0120C45D0120C85D0120D05D012091
:100BB000CC5D0120DC5D0120F85D0120F05D0120AD
:100BC0002DE9F84304000025FFF720FCDFF83892F8
:100BD000D9F80000002801D100F0B9F88B4F38682F
:100BE000044266D1002C15D089480068041914F01D
:100BF000070F0FD014F1080014F00704041B14F0C1
:100C0000070F07D0502080F31188BFF34F8FBFF339
:100C10006F8FFEE7002C4CD0DFF8F881D8F8000089
:100C2000A04246D37C480100066801E031003668E6
:100C30007068A04202D230680028F7D1D9F80000CD
:100C4000864236D072480A68036802EB03053268B0
:100C50000A60006840007168091B884214D206EBE4
:100C6000040111F00700002807D0502080F31188FC
:100C7000BFF34F8FBFF36F8FFEE77068001B4860B4
:100C80007460080000F091F8D8F800107068091A34
:100C9000C8F800106148D8F800100268914202D2EA
:100CA000D8F8001001607168386801437160002055
:100CB0003060FFF7B1FB002D01D100F091FC15F081
:100CC0000700002807D0502080F31188BFF34F8F12
:100CD000BFF36F8FFEE72800BDE8F28310B5010077
:100CE000002833D04A480068404201EB00044749DD
:100CF00060680A68104207D1502080F31188BFF362
:100D00004F8FBFF36F8FFEE72068002807D0502079
:100D100080F31188BFF34F8FBFF36F8FFEE76068DA
:100D20000A68104212D0206800280FD16268086853
:100D300082436260FFF76AFB36490A68606882187E
:100D40000A60200000F031F8FFF766FB10BD10B418
:100D5000334A3448010011F0070F04D0C91DC908F7
:100D6000C900521A82182C480160002343605218AF
:100D700027480068121AD208D200234802600023D4
:100D800004686360002304682360521A4A600068A4
:100D900008604868214A106048681E4908605FF092
:100DA00000401A49086010BC704710B41A4A00E0AD
:100DB000126811688142FBD31100536819448142C3
:100DC00004D1516840684118516010000100436827
:100DD00019441368994210D10B4913680C68A34257
:100DE00008D0436811684968CB18436011680968E6
:100DF000016004E00968016001E01168016082425D
:100E000000D0106010BC7047A85D0120B45D0120C7
:100E1000DC320008AC5D01209C5D0120B05D01204A
:100E20009C5B01004C00002062F30F2262F31F4222
:100E3000401810F0030308D0C91A1FD3DB0748BFBE
:100E400000F8012D28BF20F8022D130030B41446FD
:100E50001546103928BF20E93C00FAD8490728BFB9
:100E600020E90C0048BF40F8042D890028BF20F875
:100E7000022D48BF00F8012D30BC7047C91818BFBB
:100E800000F8012DCB0728BF00F8012D704710F1A5
:100E9000080141605FF0FF31816010F10801C1601D
:100EA00010F108010161002101607047002101611A
:100EB000704742684A6093688B609368596091609C
:100EC00008610168491C0160704710B40B6813F198
:100ED000010F01D1026907E010F1080200E0526839
:100EE00054682468A342FAD253684B604B689960F7
:100EF0008A60516008610168491C016010BC70473C
:100F00000169826843689A60426883685A604A68E7
:100F1000824201D182684A60002202610868401E54
:100F200008600868704730B4002513E050F8042BBF
:100F3000D30744BFA9F101039A18091F042942F8F5
:100F4000045BFAD213468C0744BF15809B1CC9076B
:100F500048BF1D7050F8041B0029E7D130BC704712
:100F6000001F5FF080730360001F490849000160A3
:100F7000001F0FF21501016014380260001F7FF09E
:100F800002010160203870476C48006810F1010FC1
:100F900007D0502080F31188BFF34F8FBFF36F8FBE
:100FA000FEE7502080F31188BFF34F8FBFF36F8FA0
:100FB000FEE7E0B562480168624A914207D15020DD
:100FC00080F31188BFF34F8FBFF36F8FFEE7006888
:100FD0005D49884207D1502080F31188BFF34F8FBD
:100FE000BFF36F8FFEE7594801780191FF2101702F
:100FF00001788DF800109DF8001011F05001544A4E
:101000001170544907220A6007E00A68521E0A60FC
:101010009DF8002052008DF800209DF80020120657
:10102000F3D40A6812020A600A6812F4E0620A60E5
:10103000019901704848016851F47001016001682C
:1010400051F07041016000F091F800203B490860C8
:1010500000F06CFB4148016851F04041016000F034
:1010600059FB00200EBD502080F31188BFF34F8F35
:10107000BFF36F8F31490A68521C0A600968012961
:101080000AD137490968090606D080F31188BFF3F1
:101090004F8FBFF36F8FFEE770472849086800281D
:1010A00007D1502080F31188BFF34F8FBFF36F8FAC
:1010B000FEE70868401E08600868002802D100208A
:1010C00080F31188704780B5502080F31188BFF3FA
:1010D0004F8FBFF36F8FFFF715FA002803D05FF033
:1010E00080501F490860002080F3118801BD000076
:1010F000EFF3058010280FD31A490968085C1449DA
:101100000978C0B2884207D2502080F31188BFF31B
:101110004F8FBFF36F8FFEE70E48006812490968D2
:1011200011F4E061884207D2502080F31188BFF3A8
:101130004F8FBFF36F8FFEE7704700004400002021
:1011400000ED00E071C20F4170C20F4100E400E009
:101150001C5E0120B85D012020ED00E034EF00E0CE
:1011600004ED00E0E03200080CED00E00648006805
:101170004FF47A71B0FBF1F0401E0449086007207B
:1011800003490860704700BF4800002014E000E0F9
:1011900010E000E01CB5002400F0CDF9DFF8DC031E
:1011A000006800280ED0DFF8D803019002200090DC
:1011B00000234FF48072DFF8CC130FF2F900FEF732
:1011C000E3FF0400002C07D1502080F31188BFF307
:1011D0004F8FBFF36F8FFEE7200016BDF8B584B0C8
:1011E00004001D00DFF8A063306803900020002C8D
:1011F00007D1502080F31188BFF34F8FBFF36F8F5B
:10120000FEE7DFF878733B68002B1CD00091019259
:101210000294062911DAFFF7AAFB022806D10A9ADE
:1012200000236946386800F00EFB0CE00023002222
:101230006946386800F007FB05E000232A0069468C
:10124000386800F0DBFB03993268914201D000F06E
:101250002FFE05B0F0BD7CB504000D00DFF82C03B7
:101260000068C068C668301DFFF74AFEF0690128B3
:101270001AD123002A00B1690919300000F08BF857
:10128000002811D00020009000232200002130000F
:10129000FFF7A4FF002807D1502080F31188BFF387
:1012A0004F8FBFF36F8FFEE7B16A3000726A9047CD
:1012B00073BD000080B5684600F047F8009900F063
:1012C00003F800F087F8F6E7FEB506000C00AE4D17
:1012D00028680190FFF79AF8684600F049F807007F
:1012E0000098002828D1002C08D1B74206D3FFF778
:1012F00093F839003000FFF7AEFF1FE0002C07D055
:10130000A34800680068002801D1012400E00024FF
:101310002200F61B31009948006800F08DFDFFF7B0
:101320007BF800280AD15FF080509A490860BFF32B
:101330004F8FBFF36F8F01E0FFF76EF801982968B8
:10134000884201D000F0B4FDF7BD904A11680968E9
:10135000002901D1012100E00021C9B2016000682B
:10136000002803D11068C068006800E000207047C2
:1013700070B50400FFF7C2F80500874E306885425B
:1013800004D200F09EF80120206001E000202060DF
:101390003560280070BD10B50024416000618A42AC
:1013A0000BD3D21A81698A4201D3012410E0011DB6
:1013B00077480068FFF789FD0AE09A4203D2994214
:1013C00001D3012404E0011D70480068FFF77DFD92
:1013D000200010BD38B586B06B4C20680590FFE743
:1013E0000023002201A96548006800F076FB002870
:1013F0005FD001980028F3D4039D6869002802D0CB
:10140000281DFFF77DFD04A8FFF7B2FF010001983A
:1014100000280ED002280CD00BD304282FD02DD3B7
:10142000062806D040D3082828D002D3092826D081
:101430003EE0029B0A000299A86941182800FFF7C4
:10144000AAFF0028CCD0A96A28006A6A9047E869F8
:101450000128C5D1002000900023029AA8698218B3
:1014600000212800FFF7BAFE0028B9D1502080F3F0
:101470001188BFF34F8FBFF36F8FFEE7B0E702987D
:10148000A861A869002807D00B000A00A8694118C4
:101490002800FFF780FFA3E7502080F31188BFF3F7
:1014A0004F8FBFF36F8FFEE72800FFF717FC97E71A
:1014B00096E705982168884201D000F0F9FC07B052
:1014C00030BD7CB505E070603661311D2068FFF7E6
:1014D000FCFC2E4C20680068002826D02068C068DC
:1014E00005682068C068C668301DFFF709FDB16A4D
:1014F0003000726A9047F0690128EAD1B06940195A
:101500008542E0D30020009000232A000021300013
:10151000FFF764FE002800D0DBE7502080F311883D
:10152000BFF34F8FBFF36F8FFEE7206818490A683B
:101530002260086073BD70B5FFF795FD0F4C206801
:10154000002818D1154D2800FFF7A1FC144E3000DB
:10155000FFF79DFC0D4805600D48066000220C2138
:101560000A2000F03AF920602068002803D00D49D5
:10157000206800F048FCFFF790FD70BD0C5E012074
:10158000105E0120CC320008205E0120045E0120A4
:10159000085E012004ED00E0145E0120745D01206E
:1015A000885D0120D4320008E0B500F08DFC00F029
:1015B00019F802A801900020009000234FF4007257
:1015C00033490FF20D00FEF7DFFDFEF7E5FEFEE703
:1015D00080B56420FEF7BAFE01BD000000BFFDE744
:1015E00000BFFDE718B593B02A4C20681290002088
:1015F00000902948016851F080510160006810F0A6
:10160000805000900098002000902448016851F418
:1016100080410160006810F4804000900098012033
:1016200006905FF4803007900120089000200B9016
:1016300002200C905FF480000D9004200E90A820F2
:101640000F90022010900420119006A800F056FC84
:10165000002801D000BFFDE70F200190022002907A
:10166000002003904FF4A05004904FF48050059058
:10167000052101A800F0FCFD002801D000BFFDE716
:1016800012982168884201D000F012FC14B010BDFD
:10169000B4320008205E0120403802400070004053
:1016A000EFF30980BFF36F8F244B1A681EF0100F01
:1016B00008BF20ED108A20E9F04F106008B44FF009
:1016C000500080F31188BFF34F8FBFF36F8FFEF789
:1016D00092FF4FF0000080F3118808BC1968086879
:1016E000B0E8F04F1EF0100F08BFB0EC108A80F386
:1016F0000988BFF36F8F7047104B19680868B0E80E
:10170000F04F80F30988BFF36F8F4FF0000080F334
:10171000118870470A480068006880F3088862B63C
:1017200061B6BFF34F8FBFF36F8F00DFDFF8140098
:10173000016841F47001016070470000C05D012044
:1017400008ED00E088ED00E038B504000D00002C45
:1017500007D1502080F31188BFF34F8FBFF36F8FF5
:10176000FEE7FFF780FC2168E26B206C424301EB4F
:10177000020060600020A0632068A0602168E26B26
:10178000521E206C424301EB0200E0605FF0FF302C
:1017900084F8440084F84500002D12D12069002807
:1017A00017D014F11000FEF7B7FF002811D05FF03A
:1017B0008050DFF878160860BFF34F8FBFF36F8F4C
:1017C00007E014F11000FFF762FB14F12400FFF7AB
:1017D0005EFBFFF762FC012032BDF8B506000D008C
:1017E0001700002E07D1502080F31188BFF34F8FD0
:1017F000BFF36F8FFEE7002D01D1002001E005FB54
:1018000006F05030FFF7DCF90400002C08D014F18A
:10181000500200943B00DBB22900300000F002F8D7
:101820002000F2BD38B51C00049D002901D12D60B7
:1018300000E02A60E863296401212800FFF784FFA3
:1018400085F84C4031BD2DE9FF41009205000E00A6
:101850009846DFF8DC75386803900024002D07D126
:10186000502080F31188BFF34F8FBFF36F8FFEE7D7
:10187000002E02D1286C002801D1012000E00020B8
:10188000C0B2002807D1502080F31188BFF34F8FDA
:10189000BFF36F8FFEE7B8F1020F02D1E86B0128AA
:1018A00001D1012000E00020C0B2002807D1502063
:1018B00080F31188BFF34F8FBFF36F8FFEE7FFF701
:1018C00056F8002802D10098002801D1012000E03C
:1018D0000020C0B2002838D1502080F31188BFF317
:1018E0004F8FBFF36F8FFEE7009800285DD0002C6C
:1018F00003D101A8FEF756FF0124FFF7CEFBFEF748
:1019000085FDFFF7B0FB95F9440010F1010F02D1FE
:10191000002085F8440095F9450010F1010F02D12F
:10192000002085F84500FFF7B8FB694601A8FEF7DF
:101930004FFF002853D1280000F056FA002838D174
:10194000280000F00CFAFEF767FDFFF78CFBA86B90
:10195000E96B884202D3B8F1020FC5D1424631008B
:10196000280000F0A4F9696A00290FD015F12400BD
:10197000FEF7D2FE002814D05FF08050DFF8AC14E0
:101980000860BFF34F8FBFF36F8F0AE0002808D0C5
:101990005FF08050DFF894140860BFF34F8FBFF3FF
:1019A0006F8FFFF77AFB01201FE0FFF776FB002027
:1019B0001BE0009915F11000FEF775FE280000F0FD
:1019C000CEF9FEF729FD0028BFD15FF08050DFF887
:1019D0005C140860BFF34F8FBFF36F8FB5E728002B
:1019E00000F0BDF9FEF718FD002003993A68914216
:1019F00001D000F05DFA04B0BDE8F0812DE9F843B4
:101A000005000E0014009846002D07D1502080F3E9
:101A10001188BFF34F8FBFF36F8FFEE7002E02D107
:101A2000286C002801D1012000E00020C0B200286D
:101A300007D1502080F31188BFF34F8FBFF36F8F12
:101A4000FEE7B8F1020F02D1E86B012801D10120B5
:101A500000E00020C0B2002807D1502080F3118898
:101A6000BFF34F8FBFF36F8FFEE7FFF741FBEFF33D
:101A70001187502080F31188BFF34F8FBFF36F8F12
:101A8000A86BE96B884202D3B8F1020F20D195F917
:101A9000459042463100280000F009F948465FF0C1
:101AA000FF3140B288420DD1686A00280ED015F18E
:101AB0002400FEF731FE002808D0002C06D00120BB
:101AC000206003E019F1010985F84590012000E04C
:101AD000002087F31188BDE8F2832DE9F84384B034
:101AE0000092070088461E00DFF84493D9F80000F2
:101AF00003900024002F07D1502080F31188BFF3FA
:101B00004F8FBFF36F8FFEE7B8F1000F02D1386C33
:101B1000002801D1012000E00020C0B2002807D138
:101B2000502080F31188BFF34F8FBFF36F8FFEE714
:101B3000FEF71DFF002802D10098002801D10120E6
:101B400000E00020C0B200280CD1502080F31188A2
:101B5000BFF34F8FBFF36F8FFEE7380000F0FFF841
:101B6000FEF75AFCFFF77FFABD6B002D06D10098F7
:101B700000283CD1FFF791FA00208EE0FC68414636
:101B8000380000F0D7F8002E1AD16D1EBD633868FA
:101B9000002802D1FEF79BFF78603869002822D028
:101BA00017F11000FEF7B8FD00281CD05FF0805040
:101BB000DFF878120860BFF34F8FBFF36F8F12E02A
:101BC000FC60786A00280ED017F12400FEF7A4FD0F
:101BD000002808D05FF08050DFF850120860BFF393
:101BE0004F8FBFF36F8FFFF758FA012055E0002C9D
:101BF00003D101A8FEF7D6FD0124FFF74EFAFEF748
:101C000005FCFFF730FA97F9440010F1010F02D1FB
:101C1000002087F8440097F9450010F1010F02D128
:101C2000002087F84500FFF738FA694601A8FEF75B
:101C3000CFFD002825D1380000F0C8F800288CD04E
:101C40003868002806D1FFF70EFA7868FEF7A2FE82
:101C5000FFF723FA009917F12400FEF724FD38005E
:101C600000F07DF8FEF7D8FB00287FF47BAF5FF033
:101C70008050DFF8B8110860BFF34F8FBFF36F8F4C
:101C800070E7380000F06BF8FEF7C6FB380000F094
:101C90009DF800283FF466AF00200399D9F8002092
:101CA000914201D000F004F905B0BDE8F0832DE9C0
:101CB000F041060015000027B46B306C002809D1F4
:101CC0003068002831D17068FEF7AAFE07000020B6
:101CD00070602AE0002D0FD1326CB568280000F04A
:101CE0000DFCB068316C0844B060B068716888421F
:101CF0001BD33068B06018E0326CD6F80C804046D8
:101D000000F0FCFBF068316C49420844F060F06878
:101D10003168884204D27068316C49420844F060EE
:101D2000022D02D1002C00D0641E641CB463380064
:101D3000BDE8F08110B50C00016C00290ED0C1681F
:101D4000026C1144C160C1684268914201D30168CC
:101D5000C160026CC168200000F0D0FB10BD70B5FE
:101D60000400FFF780F994F9455008E014F12400CD
:101D7000FEF7D2FC002801D0FEF76BFD6D1E280097
:101D800040B2012802DB606A0028EFD15FF0FF3526
:101D900084F84550FFF781F9FFF765F994F944603D
:101DA00008E014F11000FEF7B7FC002801D0FEF7A0
:101DB00050FD761E300040B2012802DB2069002869
:101DC000EFD184F84450FFF768F970BD10B50400F6
:101DD000FFF749F9A06B002801D1012400E000249D
:101DE000FFF75BF9200010BD10B50400FFF73BF9C9
:101DF000A06BE16B884201D1012400E00024FFF7D1
:101E00004CF9200010BD10B4002300E05B1C082B2F
:101E100009D2084C54F83320002AF7D144F8331083
:101E200004EBC301486010BC7047000004ED00E003
:101E3000205E0120745C012070B504000D001600C6
:101E4000FFF711F994F9440010F1010F02D10020BD
:101E500084F8440094F9450010F1010F02D10020EC
:101E600084F84500FFF719F9A06B002805D132006E
:101E7000290014F12400FEF72DFC2000FFF76FFF6E
:101E800070BD30B40EE00268436802440830DC07DD
:101E900044BFA9F10104E31852F8045B43F8045B62
:101EA000091FF9D150F8041B0029ECD130BC704750
:101EB00080B500F076FB01BD41F267200149086062
:101EC00070470000205E012080B50B48016851F486
:101ED00000710160016851F480610160016851F492
:101EE00080710160032000F0AFFB002000F0D0FB08
:101EF00000F028FC002002BD003C0240F8B50400C0
:101F000000202078C0075CD5DFF83803016811F0A5
:101F10000C01042909D0006810F00C0008280ED12B
:101F2000DFF824030068400209D5DFF820030068C9
:101F3000800346D56068002843D1012081E16068B4
:101F4000B0F5803F06D1DFF80403016851F4803119
:101F5000016017E06068B0F5A02F0AD1DFF8EC024D
:101F6000016851F480210160016851F48031016001
:101F700008E0B648016831F480310160016831F44D
:101F800080210160606800280DD000F033FC05005E
:101F9000AE480068800314D400F02CFC401B652878
:101FA000F6D303204DE100F025FC0500A7480068AA
:101FB000800306D500F01EFC401B6528F6D30320E5
:101FC0003FE12078800722D59E48016811F00C0F70
:101FD00008D0006810F00C0008282FD19A4800683B
:101FE00040022BD499480168890704D5E16801298A
:101FF00001D0012025E101685FF0F852B2FA82F2C7
:1020000031F0F801236913FA02F2114301602078DC
:10201000000756D56069002842D001208C4908602D
:1020200000F0E8FB05008B480068800749D400F009
:10203000E1FB401B0328F6D3032002E1E0680028FF
:102040001DD001208449086000F0D4FB05007F48C2
:102050000168890706D400F0CDFB401B0328F6D3A6
:102060000320EEE001685FF0F852B2FA82F231F03C
:10207000F801236913FA02F211430160C7E7002057
:102080007549086000F0B6FB0500704800688007DD
:10209000BDD500F0AFFB401B0328F6D30320D0E0F2
:1020A00000206B49086000F0A5FB05006948006846
:1020B000800706D500F09EFB401B0328F6D30320C3
:1020C000BFE0207840075FD500200090634801689A
:1020D00051F080510160006810F08050009000982D
:1020E0005F4E306850F48070306000F083FB050074
:1020F0003068C00506D400F07DFB401B0328F7D3F1
:1021000003209EE0A068012805D15648016851F0DF
:102110000101016015E0A068052809D15148016856
:1021200051F004010160016851F00101016008E013
:102130004C480168490849000160016831F0040118
:102140000160A06800280FD000F054FB050045484E
:102150000068800718D400F04DFB401B41F2893124
:102160008842F4D303206CE000F044FB05003D48B6
:102170000068800708D500F03DFB401B41F2893123
:102180008842F4D303205CE0A069002858D02D4891
:10219000006810F00C00082850D0A06902283CD13B
:1021A000314E0020306000F025FB0700274D2868E5
:1021B000800106D500F01EFBC01B0328F6D30320C8
:1021C0003FE02A48B0FA80F14FF44040B0FA80F284
:1021D000F020B0FA80F3E769206A0743606A10FADA
:1021E00001F13943A06A4008401E10FA02F211437F
:1021F000E06A10FA03F319431348016001203060CC
:1022000000F0F8FA04002868800119D400F0F2FA0E
:10221000001B0328F7D3032013E0002012490860B5
:1022200000F0E8FA040009480068800108D500F0D1
:10223000E1FA001B0328F6D3032002E0012000E0AE
:102240000020F2BD08380240043802400038024045
:10225000800E474274380240000047424038024036
:102260000070004070380240600047420000FE03EA
:102270002DE9F04104000D000020744E306810F08C
:102280000F00A84207D23570306810F00F00A84246
:1022900001D00120ABE02078800706D56C490A68A0
:1022A00032F0F002A06802430A602078C00768D5C7
:1022B0006068012805D167480068800313D40120B5
:1022C00095E06068022802D06068032805D1614863
:1022D0000068800107D4012089E05E48006880071B
:1022E00001D4012083E05A4F396889088900606869
:1022F0000143396000F07EFA8046606801280ED103
:10230000386810F00C0004283BD000F073FAB0EBF2
:10231000080041F289318842F2D3032067E0606807
:1023200002280ED1386810F00C00082829D000F0DF
:1023300061FAB0EB080041F289318842F2D3032000
:1023400055E0606803280ED1386810F00C000C28A6
:1023500017D000F04FFAB0EB080041F28931884203
:10236000F2D3032043E0386810F00C0F09D000F0DE
:1023700041FAB0EB080041F289318842F3D30320DF
:1023800035E0306810F00F00854207D235703068B4
:1023900010F00F00A84201D0012028E0207840076B
:1023A00006D52B490A6832F4E052E06802430A601D
:1023B0002078000707D52648016831F4604122697A
:1023C00051EAC201016000F04DF821490968224A32
:1023D00011F0F0015FF07063B3FA83F3D940515C00
:1023E000C8401E490860002000F052F90020BDE8F6
:1023F000F0811A480068704780B5FFF7FAFF14496A
:102400000968174A11F4E0515FF46013B3FA83F3DB
:10241000D940515CC84002BD0F2202600C4A1368CB
:1024200013F003034360136813F0F0038360136831
:1024300013F4E053C3601268D20812F4E052026150
:102440000248006810F00F0008607047003C02402E
:102450000838024000380240883200084800002056
:10246000BC32000800200020002000201E48006828
:1024700010F00C00002804D0042804D0082804D050
:1024800030E01A482FE01A482DE01A49086810F089
:102490003F000A6852020CD50B68154AB2FBF0F2F5
:1024A00047F6C07003401448B0FA80F0C3405A4366
:1024B0000BE00B680D4AB2FBF0F247F6C070034028
:1024C0000D48B0FA80F0C3405A43086810F4403019
:1024D0004FF44041B1FA81F1C840401C4000B2FBCA
:1024E000F0F000E001487047083802400024F40092
:1024F00000127A00043802400000FE0362B38B072A
:1025000008D0521E11F8013B00F8013B00F0248076
:102510008B07F6D1830740F0208000BF103A07D325
:1025200030B4B1E83810103AA0E83810F9D230BC15
:10253000530724BFB1E80810A0E8081044BF51F8C1
:10254000043B40F8043BD20724BF31F8022B20F8AB
:10255000022B44BF0B7803707047121F17D35B0028
:1025600009D151F8043B20F8023B1B0C121F20F844
:10257000023BF6D20BE051F8043B00F8013B1B0A8A
:1025800020F8023B1B0C121F00F8013BF3D238BFAE
:10259000121D521E24BF11F8013B00F8013BF8D870
:1025A0007047012000F02CB910F00700334B1A6877
:1025B0004FF6FF010A40324951EA00210A431A60EE
:1025C00070472E480068C0F302207047010049B2EE
:1025D000002908D4012210F01F018A40294940B285
:1025E000400941F820207047020052B2002A04D46A
:1025F0000901254A40B2115407E00901234A40B2BB
:1026000010F00F00104400F8041C704710B410F0D4
:102610000700D0F10703052B01D3042301E0D0F11B
:102620000703041D072C01D2002000E0C01E012476
:1026300014FA03F35B1E1940814014FA00F0401EA7
:102640001040084310BC704780B5FFF7ADFF01BDD7
:1026500070B504000D0016000020FFF7B2FF320035
:102660002900FFF7D3FF0100200040B2FFF7BCFFB5
:1026700070BD80B540B2FFF7A9FF01BD0CED00E0D1
:102680000000FA0500E100E000E400E018ED00E0E1
:1026900038B588B00100264C206807900020002043
:1026A00000223620FFF7D4FF3620FFF7E2FF00209C
:1026B00000902048016851F010010160006810F09E
:1026C00010000090009801A902A8FFF7A5FE059848
:1026D000002802D1FFF790FE02E0FFF78DFE4000D8
:1026E0001549B0FBF1F0401E144D1549296040F228
:1026F000E731E9606860002028610020A8602800B8
:1027000000F088F8002803D1280000F09FF800E0CE
:10271000012007992268914201D1C0B201E0FFF780
:10272000C7FB09B030BD80B5044800F09DF801BD7D
:10273000205E01204038024040420F00B45C01207E
:102740000010004018B587B0254C20680690002086
:1027500000902448016851F080010160016811F087
:1027600080010091009900210091016851F480716D
:102770000160016811F480710091009900210091BD
:10278000016851F010010160006810F01000009025
:1027900000980120029000200390022004900C2059
:1027A000019001A9104800F0A5F94FF4A060019034
:1027B00001A90E4800F09EF901200290002003902C
:1027C000022004904420019001A9094800F092F9E8
:1027D00006982168884201D0FFF76AFB08B010BD57
:1027E000205E012030380240001C024000200240E0
:1027F0000010024001480068704700BF185E0120C9
:1028000080B5AFF30080024A11001820ABBEFBE791
:102810002600020010B50400002C01D1012014E0B4
:1028200094F83900002805D1002084F838002000F1
:1028300000F05EF9022084F83900211D206800F0C4
:10284000CEF8012084F83900002010BD0168C96865
:1028500051F001010268D1600168096851F001017D
:10286000006801600020704710B50400206800690E
:1028700080071AD52068C068800716D57FF002004F
:1028800021680861012020762068806910F0030F1C
:1028900003D0200000F038FA05E0200000F035FAFF
:1028A000200000F033FA00202076206800694007FD
:1028B0001AD52068C068400716D57FF0040021684B
:1028C0000861022020762068806910F4407F03D0E0
:1028D000200000F019FA05E0200000F016FA2000B0
:1028E00000F014FA002020762068006900071AD54D
:1028F0002068C068000716D57FF0080021680861CD
:10290000042020762068C06910F0030F03D0200057
:1029100000F0FAF905E0200000F0F7F9200000F0DF
:10292000F5F90020207620680069C0061AD52068D5
:10293000C068C00616D57FF0100021680861082025
:1029400020762068C06910F4407F03D0200000F09A
:10295000DBF905E0200000F0D8F9200000F0D6F9FE
:102960000020207620680069C0070AD52068C0686A
:10297000C00706D57FF0010021680861200000F043
:10298000DDF92068006900060AD52068C0680006E5
:1029900006D57FF0800021680861200000F0DEF994
:1029A0002068006940060AD52068C068400606D540
:1029B0007FF0400021680861200000F0D0F9206815
:1029C000006980060AD52068C068800606D57FF0B9
:1029D000200021680861200000F0C2F910BD10B489
:1029E00000220468DFF8DC30984212D0B0F1804F4A
:1029F0000FD0DFF8D42090420BD0DFF8D0209042E7
:102A000007D0DFF8CC20904203D0DFF8C8209042F6
:102A100001D1012200E00022D2B2002A03D034F01A
:102A200070044A68144398422AD0B0F1804F27D0EE
:102A3000DFF89420904223D0DFF8902090421FD0FE
:102A4000DFF88C2090421BD0DFF88820904217D00E
:102A5000DFF88420904213D0DFF8802090420FD01E
:102A6000DFF87C2090420BD0DFF87820904207D02E
:102A7000DFF87420904203D0DFF87020904201D13B
:102A8000012200E00022D2B2002A03D034F44074C4
:102A9000CA68144304608A68C2620A688262984203
:102AA00003D0DFF83020904201D1012200E0002263
:102AB000D2B2002A01D0096901630121416110BC31
:102AC0007047000000000140000400400008004082
:102AD000000C00400004014000400140004401405F
:102AE0000048014000180040001C00400020004049
:102AF00070470000F8B4002200220022002337E0D3
:102B0000082704E0DFF8C8219042F9D10727FFB277
:102B100013F00302D2B2920097403E431A0092088B
:102B200045F82260DFF8AC512A68A2434E68F603EC
:102B300000D522432A60DFF8A0512A68A2434E68DC
:102B4000B60300D522432A60DFF890512A68A243D9
:102B50004E68F60200D522432A60DFF884512A68C5
:102B6000A2434E68B60201D5144322002A605B1CC2
:102B7000102B80F0AB80012515FA03F20C6814408D
:102B80009442F4D14A68022A02D04A68122A17D124
:102B90001A00D20800EB8202166A0F2713F0070210
:102BA000D2B292009740BE430F6913F00702D2B22F
:102BB000920097403E431A00D20800EB8202166250
:102BC000076803261A00D2B2520016FA02F297439F
:102BD00091F804C01CF0030C1A00D2B252001CFA87
:102BE00002FC5CEA070707604A68012A08D04A68C5
:102BF000022A05D04A68112A02D04A68122A19D13D
:102C000087681A00D2B2520016FA02F29743D1F83E
:102C10000CC01A00D2B252001CFA02FC5CEA070790
:102C2000876042689D40AA434D68C5F300159D40EA
:102C30002A434260C5681A00D2B252009640B5439A
:102C40008E681A00D2B2520096403543C5604A6879
:102C5000D2008CD500220092224A156855F4804596
:102C60001560126812F480420092009A1E4D1A00FC
:102C7000920855F822600F2713F00302D2B2920097
:102C80009740BE43194A904201D100273FE7184AB6
:102C9000904201D101273AE7164A904201D102271A
:102CA00035E7154A904201D1032730E7134A904295
:102CB00001D104272BE7124A904201D1052726E7CC
:102CC000104A90427FF41EAF062720E7F1BC704700
:102CD000001C0240003C0140043C0140083C014013
:102CE0000C3C0140443802400838014000000240DA
:102CF0000004024000080240000C024000100240A4
:102D000000140240001802407047704770470000EE
:102D100010B5040020680D4909680968884207D188
:102D20005FF0FF320A4801780A48006800F023F893
:102D300001220749200000F05FF810BD80B500684F
:102D40000549884201D100F0CDF901BD40000020C5
:102D5000F05C0120A45D0120001000407047704726
:102D600070470000EFF30580002801D0012000E04B
:102D70000020C0B270477FB501910600DFF87050A7
:102D800028680290002000900120B2FBF0F4002C93
:102D900000D10124FFF7E6FF00281BD000236A467C
:102DA00001A93000FEF72AFE012801D0FF200CE027
:102DB0000098002808D05FF08050DFF838100860D5
:102DC000BFF34F8FBFF36F8F002002992A689142A3
:102DD0000AD10BE00023220001A93000FEF733FDE9
:102DE0000128F1D0FF20F0E7FFF762F804B070BDD2
:102DF000205E012004ED00E090F83A30202B29D12C
:102E0000002903D013009BB2002B01D1012022E046
:102E100090F83830012B01D102201CE0012380F80A
:102E2000383081628285C2850021C163222180F809
:102E30003A10002180F838100168496951F0010109
:102E4000026851610168C96851F490710068C160FD
:102E5000002000E00220704738B5040020680168B7
:102E60002068C268206843690020002011F00F002C
:102E7000002807D18D0605D5950603D5200000F062
:102E8000E2F882E0002870D0D80702D412F4907FD4
:102E90006BD011F00100C0B2002805D0D00503D5D9
:102EA000E06B50F00100E063480708D513F0010023
:102EB000C0B2002803D0E06B50F00200E063880746
:102EC00008D513F00100C0B2002803D0E06B50F029
:102ED0000400E063080708D513F00103DBB2002B00
:102EE00003D0E06B50F00800E063E06B00283BD0BB
:102EF000880604D5900602D5200000F0A4F82068CA
:102F00004069800910F00100E16B090701D4002835
:102F100025D0200000F03AF82068406940061AD514
:102F20002068406930F0400021684861606B0028EB
:102F30000DD00FF27900616B0865606B00F0DAF874
:102F4000002811D0606B616B096D88470CE0200090
:102F500000F0E3F808E0200000F0DFF804E02000D3
:102F600000F0DBF80020E0630FE0080605D510064E
:102F700003D5200000F024F807E0480605D55006E8
:102F800003D5200000F051F8FFE731BD0168C968A2
:102F900031F490710268D1600168496949084900BB
:102FA00002685161202180F83A10704780B5806B2B
:102FB0000021C1850021C18400F0AFF801BD0000EF
:102FC00090F8391021292ED18168B1F5805F10D198
:102FD000016A0988C905C90D0268516001690029A3
:102FE00003D1016A891C016209E0016A491C01627E
:102FF00005E0016A4A1C0262097802685160C18CCE
:10300000491EC18489B200290BD10168C96831F019
:1030100080010268D1600168C96851F04001006810
:10302000C160002000E00220704780B50168C968D7
:1030300031F040010268D160202180F8391000F0A1
:103040006DF8002002BD80B590F83A10222946D1D3
:103050008168B1F5805F15D1826A0169002908D1C4
:1030600001684968C905C90D1180816A891C81629E
:103070001AE00168496801F0FF011180816A491C6A
:10308000816211E00169002906D1816A4A1C8262CD
:10309000026852680A7007E0816A4A1C826202680C
:1030A000526812F07F020A70C18D491EC18589B233
:1030B000002912D10168C96831F490710268D160A9
:1030C000016849694908490002685161202180F876
:1030D0003A10FFF71DFE002002E0002000E0022071
:1030E00002BD000002480168491C0160704700BF32
:1030F000185E012090F83510022903D08021416527
:10310000012009E0052180F83510016809684908A7
:103110004900006801600020704770477047000058
:103120000F48016851F4700101600E49086850F0C1
:103130000100086000200C4A10600A680B48024039
:103140000A600B480B4A1060086830F48020086061
:103150000020094908605FF0006008490860704776
:1031600088ED00E00038024008380240FFFFF6FE1C
:1031700010300024043802400C38024008ED00E012
:1031800010B5074979441831064C7C44163404E0E4
:103190000A68081D114488470146A142F8D110BDB4
:1031A000540000007800000080B502480068FFF776
:1031B00053FE01BD40000020704780B5FDF783FF3E
:1031C00001BD7047FEE7FEE7FEE7FEE7704700003F
:1031D0004EF68851CEF20001086840F47000086095
:1031E000BFF34F8FBFF36F8F4FF00070E1EE100A07
:1031F0007047000033DDFFFFD45D01004C0000206C
:10320000000000007FECFFFF4C00000014020000F3
:1032100000000020000000000500000010B504467A
:10322000044979440E31044878440C3000F006F823
:10323000204610BDEC010000E401000038B5044652
:103240000D46AC4205D0206820188047241DAC42B2
:10325000F9D131BD00F00DF8002801D0FFF790FF43
:10326000AFF300800020AFF30080FEF79DF900F07F
:1032700002F80120704700F001B800000746384608
:10328000FFF7BEFAFBE700000000000000000000AE
:103290000102030406070809014880470148004766
:1032A00021310008A9320008AFF30080FFF790FF3A
:1032B000FFF7D0FF6D61696E0000000000000000A4
:1032C0000102030449444C4500000000546D722083
:1032D00053766300546D7251000000000800000036
:1032E000F0E300E0FFF7FEBFFFF7FEBFFFF7FEBF12
:1032F000FFF7FEBFFFF7FEBFFFF7FEBFFFF7FEBF02
:10330000FFF7FEBFFFF7FEBFFFF7FEBFFFF7FEBFF1
:10331000FFF7FEBFFFF7FEBFFFF7FEBFFFF7FEBFE1
:10332000FFF7FEBFFFF7FEBFFFF7FEBFFFF7FEBFD1
:10333000FFF7FEBFFFF7FEBFFFF7FEBFFFF7FEBFC1
:10334000FFF7FEBFFFF7FEBFFFF7FEBFFFF7FEBFB1
:10335000FFF7FEBFFFF7FEBFFFF7FEBFFFF7FEBFA1
:10336000FFF7FEBFFFF7FEBFFFF7FEBFFFF7FEBF91
:10337000FFF7FEBFFFF7FEBFFFF7FEBFFFF7FEBF81
:10338000FFF7FEBFFFF7FEBFFFF7FEBFFFF7FEBF71
:10339000FFF7FEBFFFF7FEBFFFF7FEBFFFF7FEBF61
:1033A000FFF7FEBFFFF7FEBFFFF7FEBFFFF7FEBF51
:1033B000FFF7FEBFFFF7FEBFFFF7FEBFFFF7FEBF41
:1033C000FFF7FEBFFFF7FEBFFFF7FEBFFFF7FEBF31
:1033D000FFF7FEBFFFF7FEBFFFF7FEBFFFF7FEBF21
:1033E000FFF7FEBFFFF7FEBFFFF7FEBFFFF7FEBF11
:1033F000FFF7FEBFFFF7FEBFFFF7FEBFFFF7FEBF01
:10340000FFF7FEBFFFF7FEBFFFF7FEBFFFF7FEBFF0
:10341000FFF7FEBFFFF7FEBFFFF7FEBF9DEAFFFF0E
:103420000000000000C201000000000000200000B9
:10343000000000000C000000000000000000000080
:10344000000000000000000000000000000000007C
:10345000000000000000000000000000000000006C
:0C34600000000020AAAAAAAA0024F40080
:04000005080032A914
:00000001FF
